:020000040000FA
:10000000ADEF06F00000000004EF08F00000000073
:0C00100000000000000000000CEF08F0F1
:02001C000000E2
:02001E00000ED2
:10002000F86E000EF76E440E0001D925D8A01EEF21
:1000300000F0F72AD8A41EEF00F0F82AF66E0800A8
:10004000F55012001201000200020008091207B068
:1000500001000102000109022200010100A0320991
:100060000400000103000000092111010002221C0C
:10007000000705810340000104030904360347001B
:100080006C006F00620061006C00200042006F0095
:100090006F0074006C006F00610064006500720006
:1000A000200066006F007200200059006F0075008C
:1000B000210048034B006F006E00730067006E0064
:1000C0002700730020005000490043003100380031
:1000D0004600320035004B0035003000200055004E
:1000E00053004200200042006F006F0074006C005B
:1000F0006F00610064006500720006ABFF0A000239
:10010000A1017508150026FF00954009018102959F
:100110004009029102C0646A656A140E626E080E9C
:10012000606E60A68FEF00F00001D56BDE6B010EF4
:10013000D66FFF0ED76F60BA9BEF00F0809C829065
:1001400082921200A6EF00F0A9EF00F065A2AFEFD7
:1001500000F00F01676B53EF01F0B2EF00F065ACF8
:10016000B7EF00F0659C53EF01F0BAEF00F065A81F
:10017000C0EF00F06598608253EF01F0C3EF00F02C
:1001800065A4C9EF00F06594609253EF01F0CCEFE5
:1001900000F065AAD1EF00F0659A53EF01F0D4EFBB
:1001A00000F065A003EF01F00001D56B6596659640
:1001B000659665960F016A6B6B6B6C6B6D6B6E6B06
:1001C0006F6B706B716B0401080E016F000E026F94
:1001D000050E036F880E006F760E066F050E076F13
:1001E000080E046F0F01636B656A160E6A6FFF0ECF
:1001F000666F0001010EDE6F010ED66F828253EF33
:1002000001F006EF01F065A653EF01F0040EEA6E6F
:1002100061507C0BE96E0001EE50C86FEE50C96F63
:10022000EE50CA6FEE50CB6F6150DD6F6596D46BA8
:10023000C8513C0B1EEF01F026EF01F0340AD8B490
:1002400025EF01F0340A2CEF01F0340A54EC01F0F0
:1002500047EF01F034EF01F0240AD8B433EF01F096
:10026000240A3AEF01F0240A4FEC05F047EF01F0C1
:1002700042EF01F0040AD8B441EF01F0040A47EF5D
:1002800001F0040A8272B9EC05F047EF01F00001B9
:10029000D4A151EF01F00401080E016F840E046F28
:1002A000006F53EF01F012000001CB51EA6ECA510A
:1002B000E96EEE50CC6FEE50CD6FEE50CE6FEE503B
:1002C000CF6FEE50D06FEE50D16FEE50D26FEE5038
:1002D000D36F0401080E016F046F0001CCBF83EFE0
:1002E00001F0D2510008D8B478EF01F07DEF01F0B1
:1002F000D3510008D8B480EF01F0C80E81EF01F0AF
:10030000880E84EF01F0880E0401006F60980001F0
:10031000FF0ED76FCC51600B90EF01F098EF01F01A
:10032000000AD8B497EF01F0000A9EEF01F0000A2E
:10033000BAEC01F0B9EF01F0A6EF01F0200AD8B451
:10034000A5EF01F0200AACEF01F0200A2AEC05F03D
:10035000B9EF01F0B4EF01F0400AD8B4B3EF01F007
:10036000400AB8EF01F0400A4AEC05F0B9EF01F09D
:10037000D4811200CD51BFEF01F0C7EF01F0000AA8
:10038000D8B4C6EF01F0000AA4EF02F0000ACC5185
:100390001F0BCDEF01F0D5EF01F0000AD8B4D4EF78
:1003A00001F0000AE7EF01F0000A04010751EA6ECC
:1003B0000651E96E0001D651EE6EEF6A0401020E9D
:1003C000056FC80E046FA0EF02F0EFEF01F0010A15
:1003D000D8B4EEEF01F0010A22EF02F0010ADE517B
:1003E000F4EF01F0FCEF01F0020AD8B4FBEF01F0EA
:1003F000020A01EF02F0020AD4811EEF02F009EFB7
:1004000002F0030AD8B408EF02F0030A1EEF02F06C
:10041000030A010ED05DD8B01BEF02F004010751B2
:10042000EA6E0651E96EEE6AEF6A020E056FC80EBB
:10043000046F1CEF02F0D4811EEF02F0A0EF02F077
:100440002AEF02F0020AD8B429EF02F0020A9FEF65
:1004500002F0020ADE512FEF02F037EF02F0020A3B
:10046000D8B436EF02F0020A5BEF02F0020AD05174
:100470000F0BD8A456EF02F004010751EA6E0651A3
:10048000E96E0001D0AF49EF02F0040104514BEFD7
:1004900002F004010051040BEF6EEF42EF42EC6AF0
:1004A000020E056FC80E046F57EF02F0D4819DEF66
:1004B00002F063EF02F0030AD8B462EF02F0030A1D
:1004C0009CEF02F0030A04010751EA6E0651E96E3F
:1004D0000F0EE26E6A0EE16E040EDA6E0001D0516C
:1004E0008F0BD96ED946D946D946000ED926D8A049
:1004F0007BEF02F0DA2AD0510F0BD0AF86EF02F07B
:10050000E3B286EF02F0D4819AEF02F0D0BF8FEF12
:1005100002F0E3B48FEF02F0D4819AEF02F0DF50E3
:10052000040BEF6EEF42EF42EC6A0401020E056F1E
:10053000C80E046F9DEF02F0D481A0EF02F0D481C9
:1005400029EF05F0ACEF02F0010AD8B4ABEF02F0EE
:10055000010AAEEF02F0010AB6EF02F0030AD8B4C6
:10056000B5EF02F0030A64EF03F0030ACC511F0B4E
:10057000BCEF02F0C4EF02F0000AD8B4C3EF02F0FF
:10058000000AE5EF02F0000ACE51C9EF02F0D1EF08
:1005900002F0010AD8B4D0EF02F0010AE0EF02F055
:1005A000010ACD510108D8A4D9EF02F0D693DAEFB1
:1005B00002F0D6830401056BC80E046FE1EF02F070
:1005C000D48160EF03F0EDEF02F0020AD8B4ECEF53
:1005D00002F0020A5FEF03F0020ADE51F2EF02F0CE
:1005E000FAEF02F0020AD8B4F9EF02F0020A0AEFB9
:1005F00003F0020AD0510F0BD8A405EF03F0040159
:10060000056BC80E046F06EF03F0D4815DEF03F0B5
:1006100012EF03F0030AD8B411EF03F0030A5CEF02
:1006200003F0030A0F0EEA6E6A0EE96E040EE26E24
:10063000000EE16ED0510F0BD8B453EF03F0E92652
:10064000D8A024EF03F0EA2AD047D047D0457C0B4E
:10065000E126D8A02DEF03F0E22AD0A342EF03F069
:10066000EFA23FEF03F0CD510108D8A43BEF03F018
:10067000E76A3DEF03F0840EE76E40EF03F0D481AC
:1006800053EF03F0EFA452EF03F0CD510108D8A4CB
:100690004EEF03F0880EE76E50EF03F0840EE76E26
:1006A00053EF03F0D481D4B15AEF03F00401056B8A
:1006B000C80E046F5DEF03F0D48160EF03F0D481C6
:1006C00029EF05F06CEF03F0050AD8B46BEF03F0E7
:1006D000050A7EEF03F0050ACEAF72EF03F0D48176
:1006E0007AEF03F0050ED76FCE51D86F0401056B7A
:1006F000C80E046F29EF05F086EF03F0060AD8B4A0
:1007000085EF03F0060A60EF04F0060AD76FCF51B9
:100710008CEF03F094EF03F0010AD8B493EF03F0E9
:10072000010AABEF03F0010A000ED96F0FEC00F0E5
:10073000DA6FD3510008D8A4A5EF03F0DA51D25DE7
:10074000D8B0A5EF03F0D251DA6F27EC06F05CEFDA
:1007500004F0B3EF03F0020AD8B4B2EF03F0020AD8
:10076000E0EF03F0020ACE51B8EF03F0C0EF03F060
:10077000000AD8B4BFEF03F0000AC3EF03F0000A89
:10078000120EC4EF03F0D481D4B1DCEF03F0020FFA
:10079000D96F0FEC00F0DA6F020ED95FD351000869
:1007A000D8A4DAEF03F0DA51D25DD8B0DAEF03F073
:1007B000D251DA6F27EC06F05CEF04F0E8EF03F0BB
:1007C000220AD8B4E7EF03F0220A11EF04F0220A5C
:1007D000CE51EDEF03F0F5EF03F0000AD8B4F4EFDB
:1007E00003F0000AF8EF03F0000AB60EF9EF03F089
:1007F000D481D4B10DEF04F0D96F1C0EDA6FD35150
:100800000008D8A40BEF04F0DA51D25DD8B00BEF9A
:1008100004F0D251DA6F27EC06F05CEF04F019EF28
:1008200004F0030AD8B418EF04F0030A5BEF04F0F5
:10083000030ACE511EEF04F026EF04F0000AD8B4EC
:1008400025EF04F0000A2BEF04F0000A340E44EF09
:1008500004F033EF04F0010AD8B432EF04F0010AD7
:1008600038EF04F0010A380E44EF04F040EF04F0D2
:10087000020AD8B43FEF04F0020A43EF04F0020A80
:100880006E0E44EF04F0D481D4B159EF04F0D96F67
:100890000FEC00F0DA6FD3510008D8A457EF04F042
:1008A000DA51D25DD8B057EF04F0D251DA6F27ECAD
:1008B00006F05CEF04F0D48129EF05F068EF04F056
:1008C000080AD8B467EF04F0080A79EF04F0080AC0
:1008D00004010751EA6E0651E96E0001D551EF6E31
:1008E0000401010E056FC80E046F29EF05F081EFBA
:1008F00004F0090AD8B480EF04F0090AAEEF04F05E
:10090000090ACE510108D8A0A9EF04F00F016B6BC2
:100910006C6B6D6B6E6B6F6B706B716B0001CE519E
:10092000D56F95EF04F09DEF04F0000AD8B49CEF6A
:1009300004F0000AA1EF04F0000A020EDE6FA3EF3C
:1009400004F0030EDE6F0401056BC80E046FAAEFFE
:1009500004F0D48129EF05F0B6EF04F00A0AD8B408
:10096000B5EF04F00A0ADCEF04F00A0ADE51BBEF2F
:1009700004F0C3EF04F0030AD8B4C2EF04F0030A92
:10098000D7EF04F0030A010ED05DD8B0D4EF04F025
:1009900004010751EA6E0651E96EEF6A010E056F18
:1009A000C80E046FD5EF04F0D481D8EF04F0D481E1
:1009B00029EF05F0E4EF04F00B0AD8B4E3EF04F0FC
:1009C0000B0A14EF05F00B0ADE51E9EF04F0F1EF2A
:1009D00004F0030AD8B4F0EF04F0030A0FEF05F0B7
:1009E000030A010ED05DD8B00CEF05F0CE51FBEF3D
:1009F00004F003EF05F0000AD8B402EF05F0000A96
:100A000009EF05F0000A0401056BC80E046F0AEF38
:100A100005F0D4810DEF05F0D48110EF05F0D481FD
:100A200029EF05F01CEF05F0070AD8B41BEF05F01D
:100A3000070A1EEF05F0070A26EF05F00C0AD8B4E6
:100A400025EF05F00C0A26EF05F00C0AD48129EFFA
:100A500005F01200CD512FEF05F037EF05F0090A30
:100A6000D8B436EF05F0090A46EF05F0090A00018F
:100A7000210ED76FD251DA6F0001600ED96E000ED1
:100A8000DA6EC80E0401006F49EF05F0D48149EF1A
:100A900005F01200CD514DEF05F0D4811200000198
:100AA000DD51180B56EF05F05EEF05F0000AD8B4E3
:100AB0005DEF05F0000AA2EF05F0000AD75163EFE1
:100AC00005F06BEF05F0050AD8B46AEF05F0050AEA
:100AD00085EF05F0050AD8510F01636F000173EF30
:100AE00005F07BEF05F0000AD8B47AEF05F0000AB4
:100AF0007FEF05F0000A010EDE6F81EF05F0020EB8
:100B0000DE6F9EEF05F08DEF05F0210AD8B48CEF73
:100B100005F0210A92EF05F0210A807C9EEF05F096
:100B20009AEF05F0060AD8B499EF05F0060A9EEF91
:100B300005F0060A27EC06F09EEF05F0B8EF05F089
:100B4000AAEF05F0080AD8B4A9EF05F0080AAEEF3D
:100B500005F0080AB8EF05F0B6EF05F0100AD8B4B2
:100B6000B5EF05F0100AB8EF05F0100AB8EF05F080
:100B700012000001DD51180BC0EF05F0C8EF05F0C1
:100B8000000AD8B4C7EF05F0000A10EF06F0000A1B
:100B9000D751CDEF05F0D5EF05F0210AD8B4D4EF49
:100BA00005F0210A02EF06F0210A0001CB51EA6E9E
:100BB000CA51E96E0001080EDA5DD8B0E7EF05F022
:100BC000FF0ED76F0001DF2BDA51E8EF05F0080EBA
:100BD000DA5FDC6F0001010EDB6FDB51DC5DD8A05A
:100BE000F7EF05F0EE50DE6EDB2BEDEF05F00401C4
:100BF000400E0019400B8809006F056BC80E046F8A
:100C00000CEF06F00401080E016F880E006F056BF3
:100C1000C80E046F0CEF06F026EF06F018EF06F092
:100C2000080AD8B417EF06F0080A1CEF06F0080A05
:100C300026EF06F024EF06F0100AD8B423EF06F0F2
:100C4000100A26EF06F0100A26EF06F01200000147
:100C5000080EDA5DD8B032EF06F0FF0ED76FDA512A
:100C600033EF06F0080EDA5FDC6F0401056F075101
:100C7000EA6E0651E96E0001010EDB6FDB51DC5DAF
:100C8000D8A04AEF06F00FEC00F0EE6ED92BDB2B6C
:100C90003EEF06F00401400E0419400B8809046F72
:020CA000120040
:0E0CA20000016251F86E6151F76E6051F66EFE
:100CB000A68EA69CA684A688550EA76EAA0EA76E21
:100CC000A682120000016251F86E6151F76E605108
:100CD000F66E640EE96E000EEA6E0001400EE26FE1
:100CE000EE50F56E0D00E22FFBD700016251F86E59
:100CF0006151F76E6051F66EA68EA69CA684550EC5
:100D0000A76EAA0EA76EA682A694120000016051DB
:100D1000FF08D8A4A0EF06F06151FF08D8A4A0EF07
:100D200006F06251FF08D8A4A0EF06F06351FF0857
:100D3000D8A4A0EF06F00001DF6BD1809EEF06F093
:100D4000000160513F0B00510008D8A4AAEF06F043
:100D5000ACEF06F0C00E60171200F26AF16AFC6A8E
:100D6000700ED36E100ED26ED2AEB4EF06F0900EAF
:100D7000B56E0F01896A8A6A8B6A800E936E856EE2
:100D8000A00E8A6E926A946A5B6A5C6A5D6A880EDB
:100D90007E6EFF0E7F6E7A6A5B6A5C6A5D6A808C2B
:100DA00082808282C26A7A6A986A996A8A8E81BED1
:100DB00000EF08F08BEC00F0A2EC00F00001DE5137
:100DC0000308D8A4DCEF06F082820001E06BE16B3F
:100DD0000001E02BD8A4EEEF06F0E12B0001DF517B
:100DE0000108D8A4FDEF06F0808C86EC06F051ECEB
:100DF00006F062EC06F0DF6B809C00016051000899
:100E0000D8A406EF07F0828007EF07F08290A2ECEB
:060E100000F0E8EF06F01F
:020000040030CA
:0100000023DC
:0100010028D6
:0100020041BC
:0100030002FA
:01000500C03A
:01000600E514
:010008000FE8
:01000900C036
:01000A000FE6
:01000B00A054
:01000C000FE4
:01000D0040B2
:00000001FF
